{
  "contractName": "SmartStampDutyStorage",
  "abi": [
    {
      "constant": true,
      "inputs": [],
      "name": "zeroAddress",
      "outputs": [
        {
          "name": "",
          "type": "address"
        }
      ],
      "payable": false,
      "stateMutability": "view",
      "type": "function"
    },
    {
      "constant": false,
      "inputs": [],
      "name": "renounceOwnership",
      "outputs": [],
      "payable": false,
      "stateMutability": "nonpayable",
      "type": "function"
    },
    {
      "constant": true,
      "inputs": [],
      "name": "owner",
      "outputs": [
        {
          "name": "",
          "type": "address"
        }
      ],
      "payable": false,
      "stateMutability": "view",
      "type": "function"
    },
    {
      "constant": true,
      "inputs": [],
      "name": "isOwner",
      "outputs": [
        {
          "name": "",
          "type": "bool"
        }
      ],
      "payable": false,
      "stateMutability": "view",
      "type": "function"
    },
    {
      "constant": false,
      "inputs": [
        {
          "name": "newOwner",
          "type": "address"
        }
      ],
      "name": "transferOwnership",
      "outputs": [],
      "payable": false,
      "stateMutability": "nonpayable",
      "type": "function"
    },
    {
      "anonymous": false,
      "inputs": [
        {
          "indexed": true,
          "name": "previousOwner",
          "type": "address"
        },
        {
          "indexed": true,
          "name": "newOwner",
          "type": "address"
        }
      ],
      "name": "OwnershipTransferred",
      "type": "event"
    },
    {
      "constant": false,
      "inputs": [
        {
          "name": "newToken",
          "type": "address"
        }
      ],
      "name": "changeToken",
      "outputs": [],
      "payable": false,
      "stateMutability": "nonpayable",
      "type": "function"
    },
    {
      "constant": true,
      "inputs": [],
      "name": "getStampCount",
      "outputs": [
        {
          "name": "stampCount",
          "type": "uint256"
        }
      ],
      "payable": false,
      "stateMutability": "view",
      "type": "function"
    },
    {
      "constant": true,
      "inputs": [],
      "name": "getStampList",
      "outputs": [
        {
          "name": "",
          "type": "bytes32[]"
        }
      ],
      "payable": false,
      "stateMutability": "view",
      "type": "function"
    },
    {
      "constant": true,
      "inputs": [
        {
          "name": "stampCode",
          "type": "bytes32"
        }
      ],
      "name": "getStampPayCodes",
      "outputs": [
        {
          "name": "",
          "type": "bytes32[]"
        }
      ],
      "payable": false,
      "stateMutability": "view",
      "type": "function"
    },
    {
      "constant": true,
      "inputs": [
        {
          "name": "stampCode",
          "type": "bytes32"
        }
      ],
      "name": "getStampDetail",
      "outputs": [
        {
          "name": "StampCode",
          "type": "bytes32"
        },
        {
          "name": "StampName",
          "type": "string"
        },
        {
          "name": "StampPrice",
          "type": "uint32"
        },
        {
          "name": "RegulationReference",
          "type": "string"
        },
        {
          "name": "StampIndex",
          "type": "uint256"
        },
        {
          "name": "isActive",
          "type": "bool"
        }
      ],
      "payable": false,
      "stateMutability": "view",
      "type": "function"
    },
    {
      "constant": true,
      "inputs": [
        {
          "name": "stampIndex",
          "type": "uint256"
        }
      ],
      "name": "getStampDetailByIndex",
      "outputs": [
        {
          "name": "StampCode",
          "type": "bytes32"
        },
        {
          "name": "StampName",
          "type": "string"
        },
        {
          "name": "StampPrice",
          "type": "uint32"
        },
        {
          "name": "RegulationReference",
          "type": "string"
        },
        {
          "name": "StampIndex",
          "type": "uint256"
        },
        {
          "name": "isActive",
          "type": "bool"
        }
      ],
      "payable": false,
      "stateMutability": "view",
      "type": "function"
    },
    {
      "constant": false,
      "inputs": [
        {
          "name": "stampCode",
          "type": "bytes32"
        }
      ],
      "name": "stampActivate",
      "outputs": [
        {
          "name": "success",
          "type": "bool"
        }
      ],
      "payable": false,
      "stateMutability": "nonpayable",
      "type": "function"
    },
    {
      "constant": false,
      "inputs": [
        {
          "name": "stampCode",
          "type": "bytes32"
        }
      ],
      "name": "stampDeactivate",
      "outputs": [
        {
          "name": "success",
          "type": "bool"
        }
      ],
      "payable": false,
      "stateMutability": "nonpayable",
      "type": "function"
    },
    {
      "constant": true,
      "inputs": [],
      "name": "getPaymentCount",
      "outputs": [
        {
          "name": "paymentCount",
          "type": "uint256"
        }
      ],
      "payable": false,
      "stateMutability": "view",
      "type": "function"
    },
    {
      "constant": true,
      "inputs": [],
      "name": "getPayList",
      "outputs": [
        {
          "name": "",
          "type": "bytes32[]"
        }
      ],
      "payable": false,
      "stateMutability": "view",
      "type": "function"
    },
    {
      "constant": true,
      "inputs": [
        {
          "name": "payCode",
          "type": "bytes32"
        }
      ],
      "name": "getPaymentDetail",
      "outputs": [
        {
          "name": "PayCode",
          "type": "bytes32"
        },
        {
          "name": "DocHash",
          "type": "string"
        },
        {
          "name": "PayIndex",
          "type": "uint256"
        },
        {
          "name": "Payer",
          "type": "address"
        },
        {
          "name": "StampCode",
          "type": "bytes32"
        },
        {
          "name": "BloomFilter",
          "type": "string"
        }
      ],
      "payable": false,
      "stateMutability": "view",
      "type": "function"
    },
    {
      "constant": true,
      "inputs": [
        {
          "name": "stampCode",
          "type": "bytes32"
        }
      ],
      "name": "isStamp",
      "outputs": [
        {
          "name": "isIndeed",
          "type": "bool"
        }
      ],
      "payable": false,
      "stateMutability": "view",
      "type": "function"
    },
    {
      "constant": true,
      "inputs": [
        {
          "name": "payCode",
          "type": "bytes32"
        }
      ],
      "name": "isPayment",
      "outputs": [
        {
          "name": "isIndeed",
          "type": "bool"
        }
      ],
      "payable": false,
      "stateMutability": "view",
      "type": "function"
    },
    {
      "constant": true,
      "inputs": [
        {
          "name": "stampCode",
          "type": "bytes32"
        }
      ],
      "name": "getPaymentOfStampCount",
      "outputs": [
        {
          "name": "paymentOfStampCount",
          "type": "uint256"
        }
      ],
      "payable": false,
      "stateMutability": "view",
      "type": "function"
    },
    {
      "constant": true,
      "inputs": [
        {
          "name": "stampCode",
          "type": "bytes32"
        },
        {
          "name": "row",
          "type": "uint256"
        }
      ],
      "name": "getPaymentOfStampAtIndex",
      "outputs": [
        {
          "name": "paymentCode",
          "type": "bytes32"
        }
      ],
      "payable": false,
      "stateMutability": "view",
      "type": "function"
    },
    {
      "constant": false,
      "inputs": [
        {
          "name": "stampCode",
          "type": "bytes32"
        },
        {
          "name": "stampName",
          "type": "string"
        },
        {
          "name": "stampPrice",
          "type": "uint32"
        },
        {
          "name": "regulationReference",
          "type": "string"
        },
        {
          "name": "isActive",
          "type": "bool"
        }
      ],
      "name": "createStamp",
      "outputs": [
        {
          "name": "success",
          "type": "bool"
        }
      ],
      "payable": false,
      "stateMutability": "nonpayable",
      "type": "function"
    },
    {
      "constant": false,
      "inputs": [
        {
          "name": "payCode",
          "type": "bytes32"
        },
        {
          "name": "docHash",
          "type": "string"
        },
        {
          "name": "stampCode",
          "type": "bytes32"
        },
        {
          "name": "bloomFilter",
          "type": "string"
        }
      ],
      "name": "createPayment",
      "outputs": [
        {
          "name": "success",
          "type": "bool"
        }
      ],
      "payable": false,
      "stateMutability": "nonpayable",
      "type": "function"
    },
    {
      "constant": false,
      "inputs": [
        {
          "name": "value",
          "type": "uint256"
        }
      ],
      "name": "_burnToZeroAddress",
      "outputs": [
        {
          "name": "",
          "type": "bool"
        }
      ],
      "payable": false,
      "stateMutability": "nonpayable",
      "type": "function"
    }
  ],
  "bytecode": "0x6080604052336000806101000a81548173ffffffffffffffffffffffffffffffffffffffff021916908373ffffffffffffffffffffffffffffffffffffffff1602179055506000809054906101000a900473ffffffffffffffffffffffffffffffffffffffff1673ffffffffffffffffffffffffffffffffffffffff16600073ffffffffffffffffffffffffffffffffffffffff167f8be0079c531659141344cd1fd0a4f28419497f9722a3daafe3b4186f6b6457e060405160405180910390a3612358806100cf6000396000f300608060405260043610610133576000357c0100000000000000000000000000000000000000000000000000000000900463ffffffff1680630425ca14146101385780630930907b1461017d5780630f8a1cbc146101d457806318c104311461021d5780632a302fce146102745780634c2b51c7146103575780635384c1a21461039c57806359c81e9f146103e55780636034ba0e1461055357806366829b161461069d5780636efdb5bd146106e0578063715018a6146107d15780638da5cb5b146107e85780638e15637f1461083f5780638f32d59b146109855780639c1bd3e2146109b4578063af32a03f14610a20578063c8fb182414610a4b578063ef684c1614610ab7578063f143de9514610ae2578063f2fde38b14610b2b578063f6b1e3be14610b6e578063faedf73414610bb7575b600080fd5b34801561014457600080fd5b5061016360048036038101908080359060200190929190505050610c3d565b604051808215151515815260200191505060405180910390f35b34801561018957600080fd5b50610192610d5d565b604051808273ffffffffffffffffffffffffffffffffffffffff1673ffffffffffffffffffffffffffffffffffffffff16815260200191505060405180910390f35b3480156101e057600080fd5b506102036004803603810190808035600019169060200190929190505050610d62565b604051808215151515815260200191505060405180910390f35b34801561022957600080fd5b50610256600480360381019080803560001916906020019092919080359060200190929190505050610e09565b60405180826000191660001916815260200191505060405180910390f35b34801561028057600080fd5b5061033d6004803603810190808035600019169060200190929190803590602001908201803590602001908080601f01602080910402602001604051908101604052809392919081815260200183838082843782019150505050505091929192908035600019169060200190929190803590602001908201803590602001908080601f0160208091040260200160405190810160405280939291908181526020018383808284378201915050505050509192919290505050610e5d565b604051808215151515815260200191505060405180910390f35b34801561036357600080fd5b506103866004803603810190808035600019169060200190929190505050611363565b6040518082815260200191505060405180910390f35b3480156103a857600080fd5b506103cb60048036038101908080356000191690602001909291905050506113a2565b604051808215151515815260200191505060405180910390f35b3480156103f157600080fd5b506104146004803603810190808035600019169060200190929190505050611449565b604051808760001916600019168152602001806020018681526020018573ffffffffffffffffffffffffffffffffffffffff1673ffffffffffffffffffffffffffffffffffffffff168152602001846000191660001916815260200180602001838103835288818151815260200191508051906020019080838360005b838110156104ac578082015181840152602081019050610491565b50505050905090810190601f1680156104d95780820380516001836020036101000a031916815260200191505b50838103825284818151815260200191508051906020019080838360005b838110156105125780820151818401526020810190506104f7565b50505050905090810190601f16801561053f5780820380516001836020036101000a031916815260200191505b509850505050505050505060405180910390f35b34801561055f57600080fd5b506105826004803603810190808035600019169060200190929190505050611687565b604051808760001916600019168152602001806020018663ffffffff1663ffffffff1681526020018060200185815260200184151515158152602001838103835288818151815260200191508051906020019080838360005b838110156105f65780820151818401526020810190506105db565b50505050905090810190601f1680156106235780820380516001836020036101000a031916815260200191505b50838103825286818151815260200191508051906020019080838360005b8381101561065c578082015181840152602081019050610641565b50505050905090810190601f1680156106895780820380516001836020036101000a031916815260200191505b509850505050505050505060405180910390f35b3480156106a957600080fd5b506106de600480360381019080803573ffffffffffffffffffffffffffffffffffffffff1690602001909291905050506118fa565b005b3480156106ec57600080fd5b506107b76004803603810190808035600019169060200190929190803590602001908201803590602001908080601f0160208091040260200160405190810160405280939291908181526020018383808284378201915050505050509192919290803563ffffffff169060200190929190803590602001908201803590602001908080601f0160208091040260200160405190810160405280939291908181526020018383808284378201915050505050509192919290803515159060200190929190505050611951565b604051808215151515815260200191505060405180910390f35b3480156107dd57600080fd5b506107e6611ade565b005b3480156107f457600080fd5b506107fd611bb0565b604051808273ffffffffffffffffffffffffffffffffffffffff1673ffffffffffffffffffffffffffffffffffffffff16815260200191505060405180910390f35b34801561084b57600080fd5b5061086a60048036038101908080359060200190929190505050611bd9565b604051808760001916600019168152602001806020018663ffffffff1663ffffffff1681526020018060200185815260200184151515158152602001838103835288818151815260200191508051906020019080838360005b838110156108de5780820151818401526020810190506108c3565b50505050905090810190601f16801561090b5780820380516001836020036101000a031916815260200191505b50838103825286818151815260200191508051906020019080838360005b83811015610944578082015181840152602081019050610929565b50505050905090810190601f1680156109715780820380516001836020036101000a031916815260200191505b509850505050505050505060405180910390f35b34801561099157600080fd5b5061099a611e6b565b604051808215151515815260200191505060405180910390f35b3480156109c057600080fd5b506109c9611ec2565b6040518080602001828103825283818151815260200191508051906020019060200280838360005b83811015610a0c5780820151818401526020810190506109f1565b505050509050019250505060405180910390f35b348015610a2c57600080fd5b50610a35611f1e565b6040518082815260200191505060405180910390f35b348015610a5757600080fd5b50610a60611f2b565b6040518080602001828103825283818151815260200191508051906020019060200280838360005b83811015610aa3578082015181840152602081019050610a88565b505050509050019250505060405180910390f35b348015610ac357600080fd5b50610acc611f87565b6040518082815260200191505060405180910390f35b348015610aee57600080fd5b50610b116004803603810190808035600019169060200190929190505050611f94565b604051808215151515815260200191505060405180910390f35b348015610b3757600080fd5b50610b6c600480360381019080803573ffffffffffffffffffffffffffffffffffffffff169060200190929190505050611ff6565b005b348015610b7a57600080fd5b50610b9d6004803603810190808035600019169060200190929190505050612015565b604051808215151515815260200191505060405180910390f35b348015610bc357600080fd5b50610be66004803603810190808035600019169060200190929190505050612077565b6040518080602001828103825283818151815260200191508051906020019060200280838360005b83811015610c29578082015181840152602081019050610c0e565b505050509050019250505060405180910390f35b6000610c47611e6b565b1515610c5257600080fd5b600160009054906101000a900473ffffffffffffffffffffffffffffffffffffffff1673ffffffffffffffffffffffffffffffffffffffff1663a9059cbb6000846040518363ffffffff167c0100000000000000000000000000000000000000000000000000000000028152600401808373ffffffffffffffffffffffffffffffffffffffff1673ffffffffffffffffffffffffffffffffffffffff16815260200182815260200192505050602060405180830381600087803b158015610d1857600080fd5b505af1158015610d2c573d6000803e3d6000fd5b505050506040513d6020811015610d4257600080fd5b81019080805190602001909291905050505060019050919050565b600081565b6000610d6c611e6b565b1515610d7757600080fd5b610d8082611f94565b1515610d8b57600080fd5b6000151560026000846000191660001916815260200190815260200160002060050160009054906101000a900460ff161515141515610dc957600080fd5b600160026000846000191660001916815260200190815260200160002060050160006101000a81548160ff02191690831515021790555060019050919050565b6000610e1483611f94565b1515610e1f57600080fd5b60026000846000191660001916815260200190815260200160002060060182815481101515610e4a57fe5b9060005260206000200154905092915050565b60006060610e6a86612015565b151515610e7657600080fd5b610e7f84611f94565b1515610e8a57600080fd5b6001151560026000866000191660001916815260200190815260200160002060050160009054906101000a900460ff161515141515610ec857600080fd5b6000602060ff16111515610edb57600080fd5b84905060008151111515610eee57600080fd5b60026000856000191660001916815260200190815260200160002060020160009054906101000a900463ffffffff1663ffffffff16600160009054906101000a900473ffffffffffffffffffffffffffffffffffffffff1673ffffffffffffffffffffffffffffffffffffffff166370a08231336040518263ffffffff167c0100000000000000000000000000000000000000000000000000000000028152600401808273ffffffffffffffffffffffffffffffffffffffff1673ffffffffffffffffffffffffffffffffffffffff168152602001915050602060405180830381600087803b158015610fe057600080fd5b505af1158015610ff4573d6000803e3d6000fd5b505050506040513d602081101561100a57600080fd5b81019080805190602001909291905050501015151561102857600080fd5b600160009054906101000a900473ffffffffffffffffffffffffffffffffffffffff1673ffffffffffffffffffffffffffffffffffffffff1663a9059cbb61106e611bb0565b60026000886000191660001916815260200190815260200160002060020160009054906101000a900463ffffffff166040518363ffffffff167c0100000000000000000000000000000000000000000000000000000000028152600401808373ffffffffffffffffffffffffffffffffffffffff1673ffffffffffffffffffffffffffffffffffffffff1681526020018263ffffffff16815260200192505050602060405180830381600087803b15801561112857600080fd5b505af115801561113c573d6000803e3d6000fd5b505050506040513d602081101561115257600080fd5b8101908080519060200190929190505050508560046000886000191660001916815260200190815260200160002060000181600019169055508460046000886000191660001916815260200190815260200160002060010190805190602001906111bd9291906121eb565b5060016005879080600181540180825580915050906001820390600052602060002001600090919290919091509060001916905503600460008860001916600019168152602001908152602001600020600201819055503360046000886000191660001916815260200190815260200160002060030160006101000a81548173ffffffffffffffffffffffffffffffffffffffff021916908373ffffffffffffffffffffffffffffffffffffffff1602179055508360046000886000191660001916815260200190815260200160002060040181600019169055508260046000886000191660001916815260200190815260200160002060050190805190602001906112ca9291906121eb565b50600160026000866000191660001916815260200190815260200160002060060187908060018154018082558091505090600182039060005260206000200160009091929091909150906000191690550360026000866000191660001916815260200190815260200160002060070160008860001916600019168152602001908152602001600020819055506001915050949350505050565b600061136e82611f94565b151561137957600080fd5b600260008360001916600019168152602001908152602001600020600601805490509050919050565b60006113ac611e6b565b15156113b757600080fd5b6113c082611f94565b15156113cb57600080fd5b6001151560026000846000191660001916815260200190815260200160002060050160009054906101000a900460ff16151514151561140957600080fd5b600060026000846000191660001916815260200190815260200160002060050160006101000a81548160ff02191690831515021790555060019050919050565b600060606000806000606061145c61226b565b60046000896000191660001916815260200190815260200160002060c06040519081016040529081600082015460001916600019168152602001600182018054600181600116156101000203166002900480601f01602080910402602001604051908101604052809291908181526020018280546001816001161561010002031660029004801561152e5780601f106115035761010080835404028352916020019161152e565b820191906000526020600020905b81548152906001019060200180831161151157829003601f168201915b50505050508152602001600282015481526020016003820160009054906101000a900473ffffffffffffffffffffffffffffffffffffffff1673ffffffffffffffffffffffffffffffffffffffff1673ffffffffffffffffffffffffffffffffffffffff168152602001600482015460001916600019168152602001600582018054600181600116156101000203166002900480601f0160208091040260200160405190810160405280929190818152602001828054600181600116156101000203166002900480156116425780601f1061161757610100808354040283529160200191611642565b820191906000526020600020905b81548152906001019060200180831161162557829003601f168201915b5050505050815250509050806000015181602001518260400151836060015184608001518560a001518494508090509650965096509650965096505091939550919395565b600060606000606060008061169a6122be565b60026000896000191660001916815260200190815260200160002060e06040519081016040529081600082015460001916600019168152602001600182018054600181600116156101000203166002900480601f01602080910402602001604051908101604052809291908181526020018280546001816001161561010002031660029004801561176c5780601f106117415761010080835404028352916020019161176c565b820191906000526020600020905b81548152906001019060200180831161174f57829003601f168201915b505050505081526020016002820160009054906101000a900463ffffffff1663ffffffff1663ffffffff168152602001600382018054600181600116156101000203166002900480601f0160208091040260200160405190810160405280929190818152602001828054600181600116156101000203166002900480156118345780601f1061180957610100808354040283529160200191611834565b820191906000526020600020905b81548152906001019060200180831161181757829003601f168201915b50505050508152602001600482015481526020016005820160009054906101000a900460ff16151515158152602001600682018054806020026020016040519081016040528092919081815260200182805480156118b557602002820191906000526020600020905b8154600019168152602001906001019080831161189d575b5050505050815250509050806000015181602001518260400151836060015184608001518560a001518494508292509650965096509650965096505091939550919395565b611902611e6b565b151561190d57600080fd5b80600160006101000a81548173ffffffffffffffffffffffffffffffffffffffff021916908373ffffffffffffffffffffffffffffffffffffffff16021790555050565b600061195b611e6b565b151561196657600080fd5b61196f86611f94565b15151561197b57600080fd5b8560026000886000191660001916815260200190815260200160002060000181600019169055508460026000886000191660001916815260200190815260200160002060010190805190602001906119d49291906121eb565b508360026000886000191660001916815260200190815260200160002060020160006101000a81548163ffffffff021916908363ffffffff160217905550826002600088600019166000191681526020019081526020016000206003019080519060200190611a449291906121eb565b5060016003879080600181540180825580915050906001820390600052602060002001600090919290919091509060001916905503600260008860001916600019168152602001908152602001600020600401819055508160026000886000191660001916815260200190815260200160002060050160006101000a81548160ff0219169083151502179055506001905095945050505050565b611ae6611e6b565b1515611af157600080fd5b600073ffffffffffffffffffffffffffffffffffffffff166000809054906101000a900473ffffffffffffffffffffffffffffffffffffffff1673ffffffffffffffffffffffffffffffffffffffff167f8be0079c531659141344cd1fd0a4f28419497f9722a3daafe3b4186f6b6457e060405160405180910390a360008060006101000a81548173ffffffffffffffffffffffffffffffffffffffff021916908373ffffffffffffffffffffffffffffffffffffffff160217905550565b60008060009054906101000a900473ffffffffffffffffffffffffffffffffffffffff16905090565b60006060600060606000806000611bee6122be565b600389815481101515611bfd57fe5b9060005260206000200154915060026000836000191660001916815260200190815260200160002060e06040519081016040529081600082015460001916600019168152602001600182018054600181600116156101000203166002900480601f016020809104026020016040519081016040528092919081815260200182805460018160011615610100020316600290048015611cdc5780601f10611cb157610100808354040283529160200191611cdc565b820191906000526020600020905b815481529060010190602001808311611cbf57829003601f168201915b505050505081526020016002820160009054906101000a900463ffffffff1663ffffffff1663ffffffff168152602001600382018054600181600116156101000203166002900480601f016020809104026020016040519081016040528092919081815260200182805460018160011615610100020316600290048015611da45780601f10611d7957610100808354040283529160200191611da4565b820191906000526020600020905b815481529060010190602001808311611d8757829003601f168201915b50505050508152602001600482015481526020016005820160009054906101000a900460ff1615151515815260200160068201805480602002602001604051908101604052809291908181526020018280548015611e2557602002820191906000526020600020905b81546000191681526020019060010190808311611e0d575b5050505050815250509050806000015181602001518260400151836060015184608001518560a00151849450829250975097509750975097509750505091939550919395565b60008060009054906101000a900473ffffffffffffffffffffffffffffffffffffffff1673ffffffffffffffffffffffffffffffffffffffff163373ffffffffffffffffffffffffffffffffffffffff1614905090565b60606005805480602002602001604051908101604052809291908181526020018280548015611f1457602002820191906000526020600020905b81546000191681526020019060010190808311611efc575b5050505050905090565b6000600580549050905090565b60606003805480602002602001604051908101604052809291908181526020018280548015611f7d57602002820191906000526020600020905b81546000191681526020019060010190808311611f65575b5050505050905090565b6000600380549050905090565b6000806003805490501415611fac5760009050611ff1565b8160001916600360026000856000191660001916815260200190815260200160002060040154815481101515611fde57fe5b9060005260206000200154600019161490505b919050565b611ffe611e6b565b151561200957600080fd5b612012816120f1565b50565b600080600580549050141561202d5760009050612072565b816000191660056004600085600019166000191681526020019081526020016000206002015481548110151561205f57fe5b9060005260206000200154600019161490505b919050565b60606002600083600019166000191681526020019081526020016000206006018054806020026020016040519081016040528092919081815260200182805480156120e557602002820191906000526020600020905b815460001916815260200190600101908083116120cd575b50505050509050919050565b600073ffffffffffffffffffffffffffffffffffffffff168173ffffffffffffffffffffffffffffffffffffffff161415151561212d57600080fd5b8073ffffffffffffffffffffffffffffffffffffffff166000809054906101000a900473ffffffffffffffffffffffffffffffffffffffff1673ffffffffffffffffffffffffffffffffffffffff167f8be0079c531659141344cd1fd0a4f28419497f9722a3daafe3b4186f6b6457e060405160405180910390a3806000806101000a81548173ffffffffffffffffffffffffffffffffffffffff021916908373ffffffffffffffffffffffffffffffffffffffff16021790555050565b828054600181600116156101000203166002900490600052602060002090601f016020900481019282601f1061222c57805160ff191683800117855561225a565b8280016001018555821561225a579182015b8281111561225957825182559160200191906001019061223e565b5b5090506122679190612307565b5090565b60c060405190810160405280600080191681526020016060815260200160008152602001600073ffffffffffffffffffffffffffffffffffffffff16815260200160008019168152602001606081525090565b60e0604051908101604052806000801916815260200160608152602001600063ffffffff1681526020016060815260200160008152602001600015158152602001606081525090565b61232991905b8082111561232557600081600090555060010161230d565b5090565b905600a165627a7a72305820ab87c8f873b0c0409026d409a4da232ca874f43c43d7cdbad57dc2d706d08fa30029",
  "source": "pragma solidity ^0.4.24;\n\nimport \"./Ownable.sol\";\nimport \"./IERC20.sol\";\n\n/**\n * @title SmartStampDutyStorage\n * @dev A new class for stamp duty called StampDuty\n * @dev \n */\ncontract SmartStampDutyStorage is Ownable {\n    /**\n    * @dev changeToken \n    * @param changeToken\n    */\n    IERC20 token;\n    function changeToken(IERC20 newToken) onlyOwner public {\n        token = newToken;\n    }\n        \n    /**\n    * @dev zeroAddress can be used to burn tokens that have been received and audited.\n    * @param zeroAddress is unusable\n    */    \n    address constant public zeroAddress = 0x0000000000000000000000000000000000000000;\n    \n    /**\n    * @dev Referential Integrity check https://medium.com/@robhitchens/enforcing-referential-integrity-in-ethereum-smart-contracts-a9ab1427ff42\n    * @dev StampParam contains system parameters\n    * @dev StampParam can only be modified by owner\n    * @param StampCode is the unique code for the stamp and the primary key.\n    * @param StampName is the name of the stamp in human readable format\n    * @param StampPrice is the price of the stamp, in integer\n    * @param RegulationReference is the reference to a specific tax regulation\n    * @param StampIndex is the index or position of the data\n    */  \n    struct StampParam {\n        bytes32 StampCode;\n        string StampName;\n        uint32 StampPrice;\n        string RegulationReference;\n        uint StampIndex;\n        bool IsActive;\n        /**\n         * @dev To support deletion and keeps the referential integrity\n         * @param PayParamDocHash is to refer to Document hash\n         * @param PayIndexPointers refers to the payment details\n        */\n        bytes32[] PayCode;\n        mapping (bytes32 => uint256) PayIndexPointers;\n    }\n    /**\n     * @param StampStructs is for indexing based on StampName\n     * @param StampList is for sequential access based on StampCode to get the stamp row data\n    */\n    mapping (bytes32 => StampParam) StampStructs;\n    bytes32[] StampList;\n    \n    /**\n    * @dev PayParam is to store payment detail\n    * @param PayCode is the payment code generated by the system. It can be a hash of document hash, payer address, and timestamp. This is the primary key and unique.\n    * @param DocHash is the hash value of the document. DocHash is not unique.\n    * @param PayIndex is the index of the payment\n    * @param Payer is the address of the Payer\n    * @param StampIndex refers to the StampParam\n    * @param BloomFilter is used to test the similarity between the original document (hashed one) and the claimed document (printed or electronic document)\n    */ \n    struct PayParam {\n        bytes32 PayCode;\n        string DocHash;\n        uint256 PayIndex;\n        address Payer;\n        bytes32 StampCode;\n        string BloomFilter;\n    }\n    \n    mapping (bytes32 => PayParam) PayStructs;\n    bytes32[] PayList;\n    \n    /**\n     * @dev getStampCount counts the number of stamp types\n     */\n    function getStampCount() public constant returns (uint stampCount) {\n        return StampList.length;\n    }\n    \n    /**\n     * @dev getStampList returns StampList\n     */\n    function getStampList() public constant returns (bytes32[]) {\n        return StampList;\n    }\n    \n    /**\n     * @dev getStampPayCodes returns PayCode array\n     * @dev can be used to list all payments of a stamp, determined by stampCode\n     */\n    function getStampPayCodes(bytes32 stampCode) public constant returns (bytes32[]) {\n        return StampStructs[stampCode].PayCode;\n    }\n    \n    /**\n     * @dev getStampDetail gets the detail of stamp data based on StampCode\n     * @dev reference: https://medium.com/coinmonks/solidity-tutorial-returning-structs-from-public-functions-e78e48efb378\n     * @dev returns the structure of StampParam\n     */\n    function getStampDetail(bytes32 stampCode) public constant returns (bytes32 StampCode, string StampName, uint32 StampPrice, \n        string RegulationReference, uint StampIndex, bool isActive) {\n        StampParam memory s = StampStructs[stampCode];\n        return (s.StampCode, s.StampName, s.StampPrice, s.RegulationReference, s.StampIndex, s.IsActive);\n    }\n    \n    /**\n     * @dev getStampDetailByIndex gets the detail of stamp data based on its index\n     * @dev reference: https://medium.com/coinmonks/solidity-tutorial-returning-structs-from-public-functions-e78e48efb378\n     * @dev returns the structure of StampParam\n     */\n    function getStampDetailByIndex(uint stampIndex) public constant returns (bytes32 StampCode, string StampName, uint32 StampPrice, \n        string RegulationReference, uint StampIndex, bool isActive) {\n        // get the StampCode first\n        bytes32 stampCode = StampList[stampIndex];\n        StampParam memory s = StampStructs[stampCode];\n        return (s.StampCode, s.StampName, s.StampPrice, s.RegulationReference, s.StampIndex, s.IsActive);\n    }\n    \n    /**\n     * @dev stampActivate activates the stamp described by stampCode\n     * @dev onlyOwner\n     */\n    function stampActivate(bytes32 stampCode) public onlyOwner returns (bool success) {\n        // check if it is a valid stamp\n        require(isStamp(stampCode));\n        // check if stamp is currently deactivated\n        require(StampStructs[stampCode].IsActive == false);\n        StampStructs[stampCode].IsActive = true;\n        return true;\n    }\n    \n    /**\n     * @dev stampDeactivate deactivates the stamp described by stampCode\n     * @dev onlyOwner\n     */\n    function stampDeactivate(bytes32 stampCode) public onlyOwner returns (bool success) {\n        // check if it is a valid stamp\n        require(isStamp(stampCode));\n        // check if stamp is currently activated\n        require(StampStructs[stampCode].IsActive == true);\n        StampStructs[stampCode].IsActive = false;\n        return true;\n    }\n    \n    /**\n     * @dev getPaymentCount counts the number of payments\n     */\n    function getPaymentCount() public constant returns (uint paymentCount) {\n        return PayList.length;\n    }\n    \n    /**\n     * @dev getPayList returns PayList array\n     */\n    function getPayList() public constant returns (bytes32[]) {\n        return PayList;\n    }\n    \n    /**\n     * @dev getPaymentDetail gets the detail of payment data based on PayCode\n     * @dev reference: https://medium.com/coinmonks/solidity-tutorial-returning-structs-from-public-functions-e78e48efb378\n     * @dev returns the structure of PayParam\n     */\n    function getPaymentDetail(bytes32 payCode) public constant returns (bytes32 PayCode, string DocHash, uint256 PayIndex, \n        address Payer, bytes32 StampCode, string BloomFilter) {\n        PayParam memory p = PayStructs[payCode];\n        return (p.PayCode, p.DocHash, p.PayIndex, p.Payer, p.StampCode, p.BloomFilter);\n    }\n    \n    /**\n     * @dev isStamp checks if the stamp is valid\n     */\n    function isStamp (bytes32 stampCode) public constant returns (bool isIndeed) {\n        if (StampList.length == 0) return false;\n        return StampList[StampStructs[stampCode].StampIndex] == stampCode;\n    }\n    \n    /**\n     * @dev isPayment checks if a particular payment code exists\n     */\n    function isPayment (bytes32 payCode) public constant returns (bool isIndeed) {\n        if (PayList.length == 0) return false;\n        return PayList[PayStructs[payCode].PayIndex] == payCode;\n    }\n    \n    /**\n     * @dev getPaymentOfStampCount counts payments based on a specific StampName\n     */\n    function getPaymentOfStampCount(bytes32 stampCode) public constant returns (uint paymentOfStampCount) {\n        //deprecated if(!isStamp(StampName)) throw;\n        require(isStamp(stampCode));\n        return StampStructs[stampCode].PayCode.length;\n    }\n    \n    /**\n     * @dev getPaymentOfStampAtIndex payments based on a specific StampName\n     */\n    function getPaymentOfStampAtIndex(bytes32 stampCode, uint row) public constant returns (bytes32 paymentCode) {\n        require(isStamp(stampCode));\n        return StampStructs[stampCode].PayCode[row];\n    }\n    \n    /**\n     * @dev createStamp creates a new stamp, only owner can do this\n     */\n    function createStamp(bytes32 stampCode, string stampName, uint32 stampPrice, string regulationReference, bool isActive) public onlyOwner returns (bool success) {\n        //prevent duplicate\n        require(!isStamp(stampCode));\n        //add new data\n        /**\n        bytes32 StampCode;\n        string StampName;\n        uint32 StampPrice;\n        string RegulationReference;\n        uint StampIndex;\n         */\n        StampStructs[stampCode].StampCode = stampCode;\n        StampStructs[stampCode].StampName = stampName;\n        StampStructs[stampCode].StampPrice = stampPrice;\n        StampStructs[stampCode].RegulationReference = regulationReference;\n        StampStructs[stampCode].StampIndex = StampList.push(stampCode) - 1;\n        StampStructs[stampCode].IsActive = isActive;\n        \n        /**\n         * @Todo should add Event here\n         */\n        return true;\n    }\n    \n    /**\n     * @dev createPayment creates a new payment\n     */\n    function createPayment(bytes32 payCode, string docHash, bytes32 stampCode, string bloomFilter) public returns (bool success) {\n        //prevent duplicate\n        require(!isPayment(payCode));\n        //check referential integrity for stampCode\n        require(isStamp(stampCode));\n        //stamp needs to be active\n        require(StampStructs[stampCode].IsActive == true);\n        //check payCode cannot empty\n        require(payCode.length > 0);\n        //check dochHash cannot empty\n        bytes memory tempDocHash = bytes(docHash);\n        require(tempDocHash.length > 0);\n        //require the balance to be enough to pay the stamp price\n        require(token.balanceOf(msg.sender) >= StampStructs[stampCode].StampPrice);\n        //pay the stamp duty to the smart contract owner\n        token.transfer(owner(), StampStructs[stampCode].StampPrice);\n\n        /**\n        bytes32 PayCode;\n        string DocHash;\n        uint256 PayIndex;\n        address Payer;\n        bytes32 StampCode;\n        string BloomFilter;\n         */\n        PayStructs[payCode].PayCode = payCode;\n        PayStructs[payCode].DocHash = docHash;\n        PayStructs[payCode].PayIndex = PayList.push(payCode) - 1;\n        PayStructs[payCode].Payer = msg.sender;\n        PayStructs[payCode].StampCode = stampCode;\n        PayStructs[payCode].BloomFilter = bloomFilter;\n        \n        //maintain new payment in Stamp data\n        StampStructs[stampCode].PayIndexPointers[payCode] = StampStructs[stampCode].PayCode.push(payCode) - 1;\n        /**\n         * @Todo should add Event here\n         */\n        return true;\n    }\n    \n    /**\n     * @Todo create functions to modify and delete stamp\n     * @Todo modify and delete payment might not be needed\n     */\n    \n    \n    /**\n     * @dev A function to burn tokens to constant address zeroAddress.\n     */\n    function _burnToZeroAddress(uint256 value) public onlyOwner returns (bool) {\n    token.transfer(zeroAddress, value);\n    return true;\n  }  \n}\n",
  "sourcePath": "/home/fengkiej/Downloads/smartstampduty/contracts/SmartStampDutyStorage.sol",
  "compiler": {
    "name": "solc",
    "version": "0.4.24+commit.e67f0147.Emscripten.clang"
  },
  "schemaVersion": "2.0.1",
  "updatedAt": "2018-12-17T15:32:49.518Z"
}